{
  "_format": "hh-sol-artifact-1",
  "contractName": "KwikStater",
  "sourceName": "contracts/KwikStater.sol",
  "abi": [
    {
      "anonymous": false,
      "inputs": [
        {
          "indexed": true,
          "internalType": "address",
          "name": "owner",
          "type": "address"
        },
        {
          "indexed": true,
          "internalType": "address",
          "name": "spender",
          "type": "address"
        },
        {
          "indexed": false,
          "internalType": "uint256",
          "name": "value",
          "type": "uint256"
        }
      ],
      "name": "Approval",
      "type": "event"
    },
    {
      "anonymous": false,
      "inputs": [
        {
          "indexed": true,
          "internalType": "address",
          "name": "previousOwner",
          "type": "address"
        },
        {
          "indexed": true,
          "internalType": "address",
          "name": "newOwner",
          "type": "address"
        }
      ],
      "name": "OwnershipTransferred",
      "type": "event"
    },
    {
      "anonymous": false,
      "inputs": [
        {
          "indexed": true,
          "internalType": "address",
          "name": "from",
          "type": "address"
        },
        {
          "indexed": true,
          "internalType": "address",
          "name": "to",
          "type": "address"
        },
        {
          "indexed": false,
          "internalType": "uint256",
          "name": "value",
          "type": "uint256"
        }
      ],
      "name": "Transfer",
      "type": "event"
    },
    {
      "inputs": [
        {
          "internalType": "address",
          "name": "",
          "type": "address"
        }
      ],
      "name": "_isExchanger",
      "outputs": [
        {
          "internalType": "bool",
          "name": "",
          "type": "bool"
        }
      ],
      "stateMutability": "view",
      "type": "function"
    },
    {
      "inputs": [],
      "name": "_launchBlock",
      "outputs": [
        {
          "internalType": "uint256",
          "name": "",
          "type": "uint256"
        }
      ],
      "stateMutability": "view",
      "type": "function"
    },
    {
      "inputs": [],
      "name": "_launchTimestamp",
      "outputs": [
        {
          "internalType": "uint256",
          "name": "",
          "type": "uint256"
        }
      ],
      "stateMutability": "view",
      "type": "function"
    },
    {
      "inputs": [
        {
          "internalType": "address",
          "name": "",
          "type": "address"
        }
      ],
      "name": "_whiteListAmounts",
      "outputs": [
        {
          "internalType": "uint256",
          "name": "",
          "type": "uint256"
        }
      ],
      "stateMutability": "view",
      "type": "function"
    },
    {
      "inputs": [
        {
          "internalType": "address",
          "name": "",
          "type": "address"
        }
      ],
      "name": "_whiteListPurchases",
      "outputs": [
        {
          "internalType": "uint256",
          "name": "",
          "type": "uint256"
        }
      ],
      "stateMutability": "view",
      "type": "function"
    },
    {
      "inputs": [],
      "name": "_whiteListSeconds",
      "outputs": [
        {
          "internalType": "uint256",
          "name": "",
          "type": "uint256"
        }
      ],
      "stateMutability": "view",
      "type": "function"
    },
    {
      "inputs": [
        {
          "internalType": "address",
          "name": "owner",
          "type": "address"
        },
        {
          "internalType": "address",
          "name": "spender",
          "type": "address"
        }
      ],
      "name": "allowance",
      "outputs": [
        {
          "internalType": "uint256",
          "name": "",
          "type": "uint256"
        }
      ],
      "stateMutability": "view",
      "type": "function"
    },
    {
      "inputs": [
        {
          "internalType": "address",
          "name": "spender",
          "type": "address"
        },
        {
          "internalType": "uint256",
          "name": "amount",
          "type": "uint256"
        }
      ],
      "name": "approve",
      "outputs": [
        {
          "internalType": "bool",
          "name": "",
          "type": "bool"
        }
      ],
      "stateMutability": "nonpayable",
      "type": "function"
    },
    {
      "inputs": [
        {
          "internalType": "address",
          "name": "account",
          "type": "address"
        }
      ],
      "name": "balanceOf",
      "outputs": [
        {
          "internalType": "uint256",
          "name": "",
          "type": "uint256"
        }
      ],
      "stateMutability": "view",
      "type": "function"
    },
    {
      "inputs": [],
      "name": "decimals",
      "outputs": [
        {
          "internalType": "uint8",
          "name": "",
          "type": "uint8"
        }
      ],
      "stateMutability": "view",
      "type": "function"
    },
    {
      "inputs": [
        {
          "internalType": "address",
          "name": "spender",
          "type": "address"
        },
        {
          "internalType": "uint256",
          "name": "subtractedValue",
          "type": "uint256"
        }
      ],
      "name": "decreaseAllowance",
      "outputs": [
        {
          "internalType": "bool",
          "name": "",
          "type": "bool"
        }
      ],
      "stateMutability": "nonpayable",
      "type": "function"
    },
    {
      "inputs": [
        {
          "internalType": "address",
          "name": "spender",
          "type": "address"
        },
        {
          "internalType": "uint256",
          "name": "addedValue",
          "type": "uint256"
        }
      ],
      "name": "increaseAllowance",
      "outputs": [
        {
          "internalType": "bool",
          "name": "",
          "type": "bool"
        }
      ],
      "stateMutability": "nonpayable",
      "type": "function"
    },
    {
      "inputs": [
        {
          "internalType": "uint256",
          "name": "_totalSupply",
          "type": "uint256"
        }
      ],
      "name": "initialize",
      "outputs": [],
      "stateMutability": "nonpayable",
      "type": "function"
    },
    {
      "inputs": [],
      "name": "name",
      "outputs": [
        {
          "internalType": "string",
          "name": "",
          "type": "string"
        }
      ],
      "stateMutability": "view",
      "type": "function"
    },
    {
      "inputs": [],
      "name": "owner",
      "outputs": [
        {
          "internalType": "address",
          "name": "",
          "type": "address"
        }
      ],
      "stateMutability": "view",
      "type": "function"
    },
    {
      "inputs": [],
      "name": "renounceOwnership",
      "outputs": [],
      "stateMutability": "nonpayable",
      "type": "function"
    },
    {
      "inputs": [
        {
          "internalType": "address",
          "name": "account",
          "type": "address"
        },
        {
          "internalType": "bool",
          "name": "exchanger",
          "type": "bool"
        }
      ],
      "name": "setExchanger",
      "outputs": [],
      "stateMutability": "nonpayable",
      "type": "function"
    },
    {
      "inputs": [
        {
          "internalType": "uint256",
          "name": "whiteListSeconds",
          "type": "uint256"
        },
        {
          "internalType": "address[]",
          "name": "whiteListAddresses",
          "type": "address[]"
        },
        {
          "internalType": "uint256[]",
          "name": "whiteListAmounts",
          "type": "uint256[]"
        }
      ],
      "name": "setLaunchWhiteList",
      "outputs": [],
      "stateMutability": "nonpayable",
      "type": "function"
    },
    {
      "inputs": [],
      "name": "symbol",
      "outputs": [
        {
          "internalType": "string",
          "name": "",
          "type": "string"
        }
      ],
      "stateMutability": "view",
      "type": "function"
    },
    {
      "inputs": [],
      "name": "totalSupply",
      "outputs": [
        {
          "internalType": "uint256",
          "name": "",
          "type": "uint256"
        }
      ],
      "stateMutability": "view",
      "type": "function"
    },
    {
      "inputs": [
        {
          "internalType": "address",
          "name": "recipient",
          "type": "address"
        },
        {
          "internalType": "uint256",
          "name": "amount",
          "type": "uint256"
        }
      ],
      "name": "transfer",
      "outputs": [
        {
          "internalType": "bool",
          "name": "",
          "type": "bool"
        }
      ],
      "stateMutability": "nonpayable",
      "type": "function"
    },
    {
      "inputs": [
        {
          "internalType": "address",
          "name": "sender",
          "type": "address"
        },
        {
          "internalType": "address",
          "name": "recipient",
          "type": "address"
        },
        {
          "internalType": "uint256",
          "name": "amount",
          "type": "uint256"
        }
      ],
      "name": "transferFrom",
      "outputs": [
        {
          "internalType": "bool",
          "name": "",
          "type": "bool"
        }
      ],
      "stateMutability": "nonpayable",
      "type": "function"
    },
    {
      "inputs": [
        {
          "internalType": "address",
          "name": "newOwner",
          "type": "address"
        }
      ],
      "name": "transferOwnership",
      "outputs": [],
      "stateMutability": "nonpayable",
      "type": "function"
    }
  ],
  "bytecode": "0x608060405234801561001057600080fd5b50611966806100206000396000f3fe608060405234801561001057600080fd5b506004361061014d5760003560e01c806395d89b41116100c3578063c8ca18ce1161007c578063c8ca18ce146103e7578063d74f95121461040d578063dd62ed3e146104d6578063f2fde38b14610504578063f4c177701461052a578063fe4b84df146105325761014d565b806395d89b411461032b578063a457c2d714610333578063a9059cbb1461035f578063a99d0f191461038b578063c0b4fd11146103b1578063c3c3960c146103df5761014d565b80633950935111610115578063395093511461027d5780636265ed18146102a957806370a08231146102cf578063715018a6146102f55780638920266c146102ff5780638da5cb5b146103075761014d565b806306fdde0314610152578063095ea7b3146101cf57806318160ddd1461020f57806323b872dd14610229578063313ce5671461025f575b600080fd5b61015a61054f565b6040805160208082528351818301528351919283929083019185019080838360005b8381101561019457818101518382015260200161017c565b50505050905090810190601f1680156101c15780820380516001836020036101000a031916815260200191505b509250505060405180910390f35b6101fb600480360360408110156101e557600080fd5b506001600160a01b0381351690602001356105e5565b604080519115158252519081900360200190f35b610217610602565b60408051918252519081900360200190f35b6101fb6004803603606081101561023f57600080fd5b506001600160a01b03813581169160208101359091169060400135610608565b61026761068f565b6040805160ff9092168252519081900360200190f35b6101fb6004803603604081101561029357600080fd5b506001600160a01b038135169060200135610698565b610217600480360360208110156102bf57600080fd5b50356001600160a01b03166106e6565b610217600480360360208110156102e557600080fd5b50356001600160a01b03166106f8565b6102fd610713565b005b6102176107bf565b61030f6107c5565b604080516001600160a01b039092168252519081900360200190f35b61015a6107d4565b6101fb6004803603604081101561034957600080fd5b506001600160a01b038135169060200135610835565b6101fb6004803603604081101561037557600080fd5b506001600160a01b03813516906020013561089d565b6101fb600480360360208110156103a157600080fd5b50356001600160a01b03166108b1565b6102fd600480360360408110156103c757600080fd5b506001600160a01b03813516906020013515156108c6565b610217610953565b610217600480360360208110156103fd57600080fd5b50356001600160a01b0316610959565b6102fd6004803603606081101561042357600080fd5b8135919081019060408101602082013564010000000081111561044557600080fd5b82018360208201111561045757600080fd5b8035906020019184602083028401116401000000008311171561047957600080fd5b91939092909160208101903564010000000081111561049757600080fd5b8201836020820111156104a957600080fd5b803590602001918460208302840111640100000000831117156104cb57600080fd5b50909250905061096b565b610217600480360360408110156104ec57600080fd5b506001600160a01b0381358116916020013516610a7b565b6102fd6004803603602081101561051a57600080fd5b50356001600160a01b0316610aa6565b610217610ba9565b6102fd6004803603602081101561054857600080fd5b5035610baf565b60368054604080516020601f60026000196101006001881615020190951694909404938401819004810282018101909252828152606093909290918301828280156105db5780601f106105b0576101008083540402835291602001916105db565b820191906000526020600020905b8154815290600101906020018083116105be57829003601f168201915b5050505050905090565b60006105f96105f2610cb9565b8484610cbd565b50600192915050565b60355490565b6000610615848484610da9565b61068584610621610cb9565b6106808560405180606001604052806028815260200161187b602891396001600160a01b038a1660009081526034602052604081209061065f610cb9565b6001600160a01b031681526020810191909152604001600020549190610f06565b610cbd565b5060019392505050565b60385460ff1690565b60006105f96106a5610cb9565b8461068085603460006106b6610cb9565b6001600160a01b03908116825260208083019390935260409182016000908120918c168152925290205490610f9d565b609b6020526000908152604090205481565b6001600160a01b031660009081526033602052604090205490565b61071b610cb9565b6001600160a01b031661072c6107c5565b6001600160a01b031614610775576040805162461bcd60e51b815260206004820181905260248201526000805160206118a3833981519152604482015290519081900360640190fd5b6065546040516000916001600160a01b0316907f8be0079c531659141344cd1fd0a4f28419497f9722a3daafe3b4186f6b6457e0908390a3606580546001600160a01b0319169055565b60985481565b6065546001600160a01b031690565b60378054604080516020601f60026000196101006001881615020190951694909404938401819004810282018101909252828152606093909290918301828280156105db5780601f106105b0576101008083540402835291602001916105db565b60006105f9610842610cb9565b846106808560405180606001604052806025815260200161190c602591396034600061086c610cb9565b6001600160a01b03908116825260208083019390935260409182016000908120918d16815292529020549190610f06565b60006105f96108aa610cb9565b8484610da9565b609c6020526000908152604090205460ff1681565b6108ce610cb9565b6001600160a01b03166108df6107c5565b6001600160a01b031614610928576040805162461bcd60e51b815260206004820181905260248201526000805160206118a3833981519152604482015290519081900360640190fd5b6001600160a01b03919091166000908152609c60205260409020805460ff1916911515919091179055565b60975481565b609a6020526000908152604090205481565b610973610cb9565b6001600160a01b03166109846107c5565b6001600160a01b0316146109cd576040805162461bcd60e51b815260206004820181905260248201526000805160206118a3833981519152604482015290519081900360640190fd5b828114610a15576040805162461bcd60e51b8152602060048201526011602482015270125b9d985b1a59081dda1a5d195b1a5cdd607a1b604482015290519081900360640190fd5b609985905560005b83811015610a7357828282818110610a3157fe5b90506020020135609a6000878785818110610a4857fe5b602090810292909201356001600160a01b031683525081019190915260400160002055600101610a1d565b505050505050565b6001600160a01b03918216600090815260346020908152604080832093909416825291909152205490565b610aae610cb9565b6001600160a01b0316610abf6107c5565b6001600160a01b031614610b08576040805162461bcd60e51b815260206004820181905260248201526000805160206118a3833981519152604482015290519081900360640190fd5b6001600160a01b038116610b4d5760405162461bcd60e51b815260040180806020018281038252602681526020018061178c6026913960400191505060405180910390fd5b6065546040516001600160a01b038084169216907f8be0079c531659141344cd1fd0a4f28419497f9722a3daafe3b4186f6b6457e090600090a3606580546001600160a01b0319166001600160a01b0392909216919091179055565b60995481565b600054610100900460ff1680610bc85750610bc8610ffe565b80610bd6575060005460ff16155b610c115760405162461bcd60e51b815260040180806020018281038252602e8152602001806117fa602e913960400191505060405180910390fd5b600054610100900460ff16158015610c3c576000805460ff1961ff0019909116610100171660011790555b610c846040518060400160405280600a81526020016925bbb4b5a9ba30ba32b960b11b815250604051806040016040528060048152602001634b77696b60e01b81525061100f565b610c8c6110c5565b61012c609955610ca3610c9d610cb9565b83611177565b8015610cb5576000805461ff00191690555b5050565b3390565b6001600160a01b038316610d025760405162461bcd60e51b81526004018080602001828103825260248152602001806118e86024913960400191505060405180910390fd5b6001600160a01b038216610d475760405162461bcd60e51b81526004018080602001828103825260228152602001806117b26022913960400191505060405180910390fd5b6001600160a01b03808416600081815260346020908152604080832094871680845294825291829020859055815185815291517f8c5be1e5ebec7d5bd14f71427d1e84f3dd0314c0f7b2291e5b200ac8c7c3b9259281900390910190a3505050565b6001600160a01b038316610dee5760405162461bcd60e51b81526004018080602001828103825260258152602001806118c36025913960400191505060405180910390fd5b6001600160a01b038216610e335760405162461bcd60e51b81526004018080602001828103825260238152602001806117696023913960400191505060405180910390fd5b610e3e838383611269565b610e7b816040518060600160405280602681526020016117d4602691396001600160a01b0386166000908152603360205260409020549190610f06565b6001600160a01b038085166000908152603360205260408082209390935590841681522054610eaa9082610f9d565b6001600160a01b0380841660008181526033602090815260409182902094909455805185815290519193928716927fddf252ad1be2c89b69c2b068fc378daa952ba7f163c4a11628f55a4df523b3ef92918290030190a3505050565b60008184841115610f955760405162461bcd60e51b81526004018080602001828103825283818151815260200191508051906020019080838360005b83811015610f5a578181015183820152602001610f42565b50505050905090810190601f168015610f875780820380516001836020036101000a031916815260200191505b509250505060405180910390fd5b505050900390565b600082820183811015610ff7576040805162461bcd60e51b815260206004820152601b60248201527f536166654d6174683a206164646974696f6e206f766572666c6f770000000000604482015290519081900360640190fd5b9392505050565b6000611009306113f3565b15905090565b600054610100900460ff16806110285750611028610ffe565b80611036575060005460ff16155b6110715760405162461bcd60e51b815260040180806020018281038252602e8152602001806117fa602e913960400191505060405180910390fd5b600054610100900460ff1615801561109c576000805460ff1961ff0019909116610100171660011790555b6110a46113f9565b6110ae8383611499565b80156110c0576000805461ff00191690555b505050565b600054610100900460ff16806110de57506110de610ffe565b806110ec575060005460ff16155b6111275760405162461bcd60e51b815260040180806020018281038252602e8152602001806117fa602e913960400191505060405180910390fd5b600054610100900460ff16158015611152576000805460ff1961ff0019909116610100171660011790555b61115a6113f9565b611162611571565b8015611174576000805461ff00191690555b50565b6001600160a01b0382166111d2576040805162461bcd60e51b815260206004820152601f60248201527f45524332303a206d696e7420746f20746865207a65726f206164647265737300604482015290519081900360640190fd5b6111de60008383611269565b6035546111eb9082610f9d565b6035556001600160a01b0382166000908152603360205260409020546112119082610f9d565b6001600160a01b03831660008181526033602090815260408083209490945583518581529351929391927fddf252ad1be2c89b69c2b068fc378daa952ba7f163c4a11628f55a4df523b3ef9281900390910190a35050565b60975415801561129257506001600160a01b0383166000908152609c602052604090205460ff16155b80156112b657506001600160a01b0382166000908152609c602052604090205460ff165b156112c45743609755426098555b6001600160a01b0383166000908152609c602052604090205460ff16801561130557506001600160a01b0382166000908152609c602052604090205460ff16155b156110c0576099546098544203116110c0576001600160a01b0382166000908152609a6020908152604080832054609b9092528220541015611372576001600160a01b0383166000908152609b6020908152604080832054609a9092529091205461136f9161166a565b90505b808211156113b15760405162461bcd60e51b81526004018080602001828103825260538152602001806118286053913960600191505060405180910390fd5b6001600160a01b0383166000908152609b60205260409020546113d49083610f9d565b6001600160a01b0384166000908152609b602052604090205550505050565b3b151590565b600054610100900460ff16806114125750611412610ffe565b80611420575060005460ff16155b61145b5760405162461bcd60e51b815260040180806020018281038252602e8152602001806117fa602e913960400191505060405180910390fd5b600054610100900460ff16158015611162576000805460ff1961ff0019909116610100171660011790558015611174576000805461ff001916905550565b600054610100900460ff16806114b257506114b2610ffe565b806114c0575060005460ff16155b6114fb5760405162461bcd60e51b815260040180806020018281038252602e8152602001806117fa602e913960400191505060405180910390fd5b600054610100900460ff16158015611526576000805460ff1961ff0019909116610100171660011790555b82516115399060369060208601906116c7565b50815161154d9060379060208501906116c7565b506038805460ff1916601217905580156110c0576000805461ff0019169055505050565b600054610100900460ff168061158a575061158a610ffe565b80611598575060005460ff16155b6115d35760405162461bcd60e51b815260040180806020018281038252602e8152602001806117fa602e913960400191505060405180910390fd5b600054610100900460ff161580156115fe576000805460ff1961ff0019909116610100171660011790555b6000611608610cb9565b606580546001600160a01b0319166001600160a01b038316908117909155604051919250906000907f8be0079c531659141344cd1fd0a4f28419497f9722a3daafe3b4186f6b6457e0908290a3508015611174576000805461ff001916905550565b6000828211156116c1576040805162461bcd60e51b815260206004820152601e60248201527f536166654d6174683a207375627472616374696f6e206f766572666c6f770000604482015290519081900360640190fd5b50900390565b828054600181600116156101000203166002900490600052602060002090601f0160209004810192826116fd5760008555611743565b82601f1061171657805160ff1916838001178555611743565b82800160010185558215611743579182015b82811115611743578251825591602001919060010190611728565b5061174f929150611753565b5090565b5b8082111561174f576000815560010161175456fe45524332303a207472616e7366657220746f20746865207a65726f20616464726573734f776e61626c653a206e6577206f776e657220697320746865207a65726f206164647265737345524332303a20617070726f766520746f20746865207a65726f206164647265737345524332303a207472616e7366657220616d6f756e7420657863656564732062616c616e6365496e697469616c697a61626c653a20636f6e747261637420697320616c726561647920696e697469616c697a6564496e697469616c206c61756e63682069732077686974656c69737465642c20706c6561736520636865636b20696620656c696769626c65206f722074727920616674657220696e697469616c20706572696f6445524332303a207472616e7366657220616d6f756e74206578636565647320616c6c6f77616e63654f776e61626c653a2063616c6c6572206973206e6f7420746865206f776e657245524332303a207472616e736665722066726f6d20746865207a65726f206164647265737345524332303a20617070726f76652066726f6d20746865207a65726f206164647265737345524332303a2064656372656173656420616c6c6f77616e63652062656c6f77207a65726fa26469706673582212206bcba2bb4ee75526294d17251de0a409b8c81cea900cbf2f742ac2f4355603a464736f6c63430007060033",
  "linkReferences": {},
  "deployedLinkReferences": {}
}