{
  "_format": "hh-sol-artifact-1",
  "contractName": "KwikAuction",
  "sourceName": "contracts/auction/KwikAuction.sol",
  "abi": [
    {
      "inputs": [],
      "stateMutability": "nonpayable",
      "type": "constructor"
    },
    {
      "anonymous": false,
      "inputs": [
        {
          "indexed": true,
          "internalType": "uint256",
          "name": "auctionId",
          "type": "uint256"
        },
        {
          "indexed": false,
          "internalType": "uint96",
          "name": "soldAuctioningTokens",
          "type": "uint96"
        },
        {
          "indexed": false,
          "internalType": "uint96",
          "name": "soldBiddingTokens",
          "type": "uint96"
        },
        {
          "indexed": false,
          "internalType": "bytes32",
          "name": "clearingPriceOrder",
          "type": "bytes32"
        }
      ],
      "name": "AuctionCleared",
      "type": "event"
    },
    {
      "anonymous": false,
      "inputs": [
        {
          "indexed": true,
          "internalType": "uint256",
          "name": "auctionId",
          "type": "uint256"
        },
        {
          "indexed": true,
          "internalType": "uint64",
          "name": "userId",
          "type": "uint64"
        },
        {
          "indexed": false,
          "internalType": "uint96",
          "name": "buyAmount",
          "type": "uint96"
        },
        {
          "indexed": false,
          "internalType": "uint96",
          "name": "sellAmount",
          "type": "uint96"
        }
      ],
      "name": "CancellationSellOrder",
      "type": "event"
    },
    {
      "anonymous": false,
      "inputs": [
        {
          "indexed": true,
          "internalType": "uint256",
          "name": "auctionId",
          "type": "uint256"
        },
        {
          "indexed": true,
          "internalType": "uint64",
          "name": "userId",
          "type": "uint64"
        },
        {
          "indexed": false,
          "internalType": "uint96",
          "name": "buyAmount",
          "type": "uint96"
        },
        {
          "indexed": false,
          "internalType": "uint96",
          "name": "sellAmount",
          "type": "uint96"
        }
      ],
      "name": "ClaimedFromOrder",
      "type": "event"
    },
    {
      "anonymous": false,
      "inputs": [
        {
          "indexed": true,
          "internalType": "uint256",
          "name": "auctionId",
          "type": "uint256"
        },
        {
          "indexed": true,
          "internalType": "contract IERC20",
          "name": "_auctioningToken",
          "type": "address"
        },
        {
          "indexed": true,
          "internalType": "contract IERC20",
          "name": "_biddingToken",
          "type": "address"
        },
        {
          "indexed": false,
          "internalType": "uint256",
          "name": "orderCancellationEndDate",
          "type": "uint256"
        },
        {
          "indexed": false,
          "internalType": "uint256",
          "name": "auctionEndDate",
          "type": "uint256"
        },
        {
          "indexed": false,
          "internalType": "uint64",
          "name": "userId",
          "type": "uint64"
        },
        {
          "indexed": false,
          "internalType": "uint96",
          "name": "_auctionedSellAmount",
          "type": "uint96"
        },
        {
          "indexed": false,
          "internalType": "uint96",
          "name": "_minBuyAmount",
          "type": "uint96"
        },
        {
          "indexed": false,
          "internalType": "uint256",
          "name": "minimumBiddingAmountPerOrder",
          "type": "uint256"
        },
        {
          "indexed": false,
          "internalType": "uint256",
          "name": "minFundingThreshold",
          "type": "uint256"
        },
        {
          "indexed": false,
          "internalType": "address",
          "name": "allowListContract",
          "type": "address"
        },
        {
          "indexed": false,
          "internalType": "bytes",
          "name": "allowListData",
          "type": "bytes"
        }
      ],
      "name": "NewAuction",
      "type": "event"
    },
    {
      "anonymous": false,
      "inputs": [
        {
          "indexed": true,
          "internalType": "uint256",
          "name": "auctionId",
          "type": "uint256"
        },
        {
          "indexed": true,
          "internalType": "uint64",
          "name": "userId",
          "type": "uint64"
        },
        {
          "indexed": false,
          "internalType": "uint96",
          "name": "buyAmount",
          "type": "uint96"
        },
        {
          "indexed": false,
          "internalType": "uint96",
          "name": "sellAmount",
          "type": "uint96"
        }
      ],
      "name": "NewSellOrder",
      "type": "event"
    },
    {
      "anonymous": false,
      "inputs": [
        {
          "indexed": true,
          "internalType": "uint64",
          "name": "userId",
          "type": "uint64"
        },
        {
          "indexed": true,
          "internalType": "address",
          "name": "userAddress",
          "type": "address"
        }
      ],
      "name": "NewUser",
      "type": "event"
    },
    {
      "anonymous": false,
      "inputs": [
        {
          "indexed": true,
          "internalType": "address",
          "name": "previousOwner",
          "type": "address"
        },
        {
          "indexed": true,
          "internalType": "address",
          "name": "newOwner",
          "type": "address"
        }
      ],
      "name": "OwnershipTransferred",
      "type": "event"
    },
    {
      "anonymous": false,
      "inputs": [
        {
          "indexed": true,
          "internalType": "address",
          "name": "user",
          "type": "address"
        },
        {
          "indexed": false,
          "internalType": "uint64",
          "name": "userId",
          "type": "uint64"
        }
      ],
      "name": "UserRegistration",
      "type": "event"
    },
    {
      "inputs": [],
      "name": "FEE_DENOMINATOR",
      "outputs": [
        {
          "internalType": "uint256",
          "name": "",
          "type": "uint256"
        }
      ],
      "stateMutability": "view",
      "type": "function"
    },
    {
      "inputs": [
        {
          "internalType": "uint256",
          "name": "",
          "type": "uint256"
        }
      ],
      "name": "auctionAccessData",
      "outputs": [
        {
          "internalType": "bytes",
          "name": "",
          "type": "bytes"
        }
      ],
      "stateMutability": "view",
      "type": "function"
    },
    {
      "inputs": [
        {
          "internalType": "uint256",
          "name": "",
          "type": "uint256"
        }
      ],
      "name": "auctionAccessManager",
      "outputs": [
        {
          "internalType": "address",
          "name": "",
          "type": "address"
        }
      ],
      "stateMutability": "view",
      "type": "function"
    },
    {
      "inputs": [],
      "name": "auctionCounter",
      "outputs": [
        {
          "internalType": "uint256",
          "name": "",
          "type": "uint256"
        }
      ],
      "stateMutability": "view",
      "type": "function"
    },
    {
      "inputs": [
        {
          "internalType": "uint256",
          "name": "",
          "type": "uint256"
        }
      ],
      "name": "auctionData",
      "outputs": [
        {
          "internalType": "contract IERC20",
          "name": "auctioningToken",
          "type": "address"
        },
        {
          "internalType": "contract IERC20",
          "name": "biddingToken",
          "type": "address"
        },
        {
          "internalType": "uint256",
          "name": "orderCancellationEndDate",
          "type": "uint256"
        },
        {
          "internalType": "uint256",
          "name": "auctionEndDate",
          "type": "uint256"
        },
        {
          "internalType": "bytes32",
          "name": "initialAuctionOrder",
          "type": "bytes32"
        },
        {
          "internalType": "uint256",
          "name": "minimumBiddingAmountPerOrder",
          "type": "uint256"
        },
        {
          "internalType": "uint256",
          "name": "interimSumBidAmount",
          "type": "uint256"
        },
        {
          "internalType": "bytes32",
          "name": "interimOrder",
          "type": "bytes32"
        },
        {
          "internalType": "bytes32",
          "name": "clearingPriceOrder",
          "type": "bytes32"
        },
        {
          "internalType": "uint96",
          "name": "volumeClearingPriceOrder",
          "type": "uint96"
        },
        {
          "internalType": "bool",
          "name": "minFundingThresholdNotReached",
          "type": "bool"
        },
        {
          "internalType": "bool",
          "name": "isAtomicClosureAllowed",
          "type": "bool"
        },
        {
          "internalType": "uint256",
          "name": "feeNumerator",
          "type": "uint256"
        },
        {
          "internalType": "uint256",
          "name": "minFundingThreshold",
          "type": "uint256"
        }
      ],
      "stateMutability": "view",
      "type": "function"
    },
    {
      "inputs": [
        {
          "internalType": "uint256",
          "name": "auctionId",
          "type": "uint256"
        },
        {
          "internalType": "bytes32[]",
          "name": "_sellOrders",
          "type": "bytes32[]"
        }
      ],
      "name": "cancelSellOrders",
      "outputs": [],
      "stateMutability": "nonpayable",
      "type": "function"
    },
    {
      "inputs": [
        {
          "internalType": "uint256",
          "name": "auctionId",
          "type": "uint256"
        },
        {
          "internalType": "bytes32[]",
          "name": "orders",
          "type": "bytes32[]"
        }
      ],
      "name": "claimFromParticipantOrder",
      "outputs": [
        {
          "internalType": "uint256",
          "name": "sumAuctioningTokenAmount",
          "type": "uint256"
        },
        {
          "internalType": "uint256",
          "name": "sumBiddingTokenAmount",
          "type": "uint256"
        }
      ],
      "stateMutability": "nonpayable",
      "type": "function"
    },
    {
      "inputs": [
        {
          "internalType": "uint256",
          "name": "auctionId",
          "type": "uint256"
        },
        {
          "internalType": "bytes32",
          "name": "order",
          "type": "bytes32"
        }
      ],
      "name": "containsOrder",
      "outputs": [
        {
          "internalType": "bool",
          "name": "",
          "type": "bool"
        }
      ],
      "stateMutability": "view",
      "type": "function"
    },
    {
      "inputs": [],
      "name": "feeNumerator",
      "outputs": [
        {
          "internalType": "uint256",
          "name": "",
          "type": "uint256"
        }
      ],
      "stateMutability": "view",
      "type": "function"
    },
    {
      "inputs": [],
      "name": "feeReceiverUserId",
      "outputs": [
        {
          "internalType": "uint64",
          "name": "",
          "type": "uint64"
        }
      ],
      "stateMutability": "view",
      "type": "function"
    },
    {
      "inputs": [
        {
          "internalType": "uint256",
          "name": "auctionId",
          "type": "uint256"
        }
      ],
      "name": "getSecondsRemainingInBatch",
      "outputs": [
        {
          "internalType": "uint256",
          "name": "",
          "type": "uint256"
        }
      ],
      "stateMutability": "view",
      "type": "function"
    },
    {
      "inputs": [
        {
          "internalType": "address",
          "name": "user",
          "type": "address"
        }
      ],
      "name": "getUserId",
      "outputs": [
        {
          "internalType": "uint64",
          "name": "userId",
          "type": "uint64"
        }
      ],
      "stateMutability": "nonpayable",
      "type": "function"
    },
    {
      "inputs": [
        {
          "internalType": "contract IERC20",
          "name": "_auctioningToken",
          "type": "address"
        },
        {
          "internalType": "contract IERC20",
          "name": "_biddingToken",
          "type": "address"
        },
        {
          "internalType": "uint256",
          "name": "orderCancellationEndDate",
          "type": "uint256"
        },
        {
          "internalType": "uint256",
          "name": "auctionEndDate",
          "type": "uint256"
        },
        {
          "internalType": "uint96",
          "name": "_auctionedSellAmount",
          "type": "uint96"
        },
        {
          "internalType": "uint96",
          "name": "_minBuyAmount",
          "type": "uint96"
        },
        {
          "internalType": "uint256",
          "name": "minimumBiddingAmountPerOrder",
          "type": "uint256"
        },
        {
          "internalType": "uint256",
          "name": "minFundingThreshold",
          "type": "uint256"
        },
        {
          "internalType": "bool",
          "name": "isAtomicClosureAllowed",
          "type": "bool"
        },
        {
          "internalType": "address",
          "name": "accessManagerContract",
          "type": "address"
        },
        {
          "internalType": "bytes",
          "name": "accessManagerContractData",
          "type": "bytes"
        }
      ],
      "name": "initiateAuction",
      "outputs": [
        {
          "internalType": "uint256",
          "name": "",
          "type": "uint256"
        }
      ],
      "stateMutability": "nonpayable",
      "type": "function"
    },
    {
      "inputs": [],
      "name": "numUsers",
      "outputs": [
        {
          "internalType": "uint64",
          "name": "",
          "type": "uint64"
        }
      ],
      "stateMutability": "view",
      "type": "function"
    },
    {
      "inputs": [],
      "name": "owner",
      "outputs": [
        {
          "internalType": "address",
          "name": "",
          "type": "address"
        }
      ],
      "stateMutability": "view",
      "type": "function"
    },
    {
      "inputs": [
        {
          "internalType": "uint256",
          "name": "auctionId",
          "type": "uint256"
        },
        {
          "internalType": "uint96[]",
          "name": "_minBuyAmounts",
          "type": "uint96[]"
        },
        {
          "internalType": "uint96[]",
          "name": "_sellAmounts",
          "type": "uint96[]"
        },
        {
          "internalType": "bytes32[]",
          "name": "_prevSellOrders",
          "type": "bytes32[]"
        },
        {
          "internalType": "bytes",
          "name": "allowListCallData",
          "type": "bytes"
        }
      ],
      "name": "placeSellOrders",
      "outputs": [
        {
          "internalType": "uint64",
          "name": "userId",
          "type": "uint64"
        }
      ],
      "stateMutability": "nonpayable",
      "type": "function"
    },
    {
      "inputs": [
        {
          "internalType": "uint256",
          "name": "auctionId",
          "type": "uint256"
        },
        {
          "internalType": "uint96[]",
          "name": "_minBuyAmounts",
          "type": "uint96[]"
        },
        {
          "internalType": "uint96[]",
          "name": "_sellAmounts",
          "type": "uint96[]"
        },
        {
          "internalType": "bytes32[]",
          "name": "_prevSellOrders",
          "type": "bytes32[]"
        },
        {
          "internalType": "bytes",
          "name": "allowListCallData",
          "type": "bytes"
        },
        {
          "internalType": "address",
          "name": "orderSubmitter",
          "type": "address"
        }
      ],
      "name": "placeSellOrdersOnBehalf",
      "outputs": [
        {
          "internalType": "uint64",
          "name": "userId",
          "type": "uint64"
        }
      ],
      "stateMutability": "nonpayable",
      "type": "function"
    },
    {
      "inputs": [
        {
          "internalType": "uint256",
          "name": "auctionId",
          "type": "uint256"
        },
        {
          "internalType": "uint256",
          "name": "iterationSteps",
          "type": "uint256"
        }
      ],
      "name": "precalculateSellAmountSum",
      "outputs": [],
      "stateMutability": "nonpayable",
      "type": "function"
    },
    {
      "inputs": [
        {
          "internalType": "address",
          "name": "user",
          "type": "address"
        }
      ],
      "name": "registerUser",
      "outputs": [
        {
          "internalType": "uint64",
          "name": "userId",
          "type": "uint64"
        }
      ],
      "stateMutability": "nonpayable",
      "type": "function"
    },
    {
      "inputs": [],
      "name": "renounceOwnership",
      "outputs": [],
      "stateMutability": "nonpayable",
      "type": "function"
    },
    {
      "inputs": [
        {
          "internalType": "uint256",
          "name": "newFeeNumerator",
          "type": "uint256"
        },
        {
          "internalType": "address",
          "name": "newfeeReceiverAddress",
          "type": "address"
        }
      ],
      "name": "setFeeParameters",
      "outputs": [],
      "stateMutability": "nonpayable",
      "type": "function"
    },
    {
      "inputs": [
        {
          "internalType": "uint256",
          "name": "auctionId",
          "type": "uint256"
        }
      ],
      "name": "settleAuction",
      "outputs": [
        {
          "internalType": "bytes32",
          "name": "clearingOrder",
          "type": "bytes32"
        }
      ],
      "stateMutability": "nonpayable",
      "type": "function"
    },
    {
      "inputs": [
        {
          "internalType": "uint256",
          "name": "auctionId",
          "type": "uint256"
        },
        {
          "internalType": "uint96[]",
          "name": "_minBuyAmount",
          "type": "uint96[]"
        },
        {
          "internalType": "uint96[]",
          "name": "_sellAmount",
          "type": "uint96[]"
        },
        {
          "internalType": "bytes32[]",
          "name": "_prevSellOrder",
          "type": "bytes32[]"
        },
        {
          "internalType": "bytes",
          "name": "allowListCallData",
          "type": "bytes"
        }
      ],
      "name": "settleAuctionAtomically",
      "outputs": [],
      "stateMutability": "nonpayable",
      "type": "function"
    },
    {
      "inputs": [
        {
          "internalType": "address",
          "name": "newOwner",
          "type": "address"
        }
      ],
      "name": "transferOwnership",
      "outputs": [],
      "stateMutability": "nonpayable",
      "type": "function"
    }
  ],
  "bytecode": "0x60806040526000600955600a80546001600160401b03191660011790553480156200002957600080fd5b5060006200003662000086565b600080546001600160a01b0319166001600160a01b0383169081178255604051929350917f8be0079c531659141344cd1fd0a4f28419497f9722a3daafe3b4186f6b6457e0908290a3506200008a565b3390565b613ef9806200009a6000396000f3fe608060405234801561001057600080fd5b50600436106101585760003560e01c80637882deaf116100c3578063d73792a91161007c578063d73792a9146109eb578063e4a59ef4146109f3578063e86dea4a14610a10578063ec20d0bb14610a18578063f2fde38b14610c1c578063f59c2f0614610c4257610158565b80637882deaf146104605780637ed18b70146105215780638da5cb5b146105c957806391cfc1d4146105ed578063a7e76644146107e8578063d225269c146107f057610158565b80633e12905f116101155780633e12905f1461031b57806340b20b091461034057806355fc62d21461036c5780635cefb2911461041957806363c699a414610421578063715018a61461045857610158565b80630a4cd6c91461015d57806315d37b4b1461027157806319a50f491461028e5780632199d5cd146102b25780632b956ff7146102d85780632e993611146102fe575b600080fd5b61025f600480360361016081101561017457600080fd5b6001600160a01b03823581169260208101358216926040820135926060830135926001600160601b03608082013581169360a08301359091169260c08301359260e0810135926101008201351515926101208301351691908101906101608101610140820135600160201b8111156101eb57600080fd5b8201836020820111156101fd57600080fd5b803590602001918460018302840111600160201b8311171561021e57600080fd5b91908080601f016020809104026020016040519081016040528093929190818152602001838380828437600092019190915250929550610cd4945050505050565b60408051918252519081900360200190f35b61025f6004803603602081101561028757600080fd5b5035611222565b610296611267565b604080516001600160401b039092168252519081900360200190f35b610296600480360360208110156102c857600080fd5b50356001600160a01b0316611276565b610296600480360360208110156102ee57600080fd5b50356001600160a01b031661136b565b61025f6004803603602081101561031457600080fd5b50356113df565b61033e6004803603604081101561033157600080fd5b5080359060200135611778565b005b61033e6004803603604081101561035657600080fd5b50803590602001356001600160a01b031661199e565b6103896004803603602081101561038257600080fd5b5035611a82565b604051808f6001600160a01b031681526020018e6001600160a01b031681526020018d81526020018c81526020018b81526020018a8152602001898152602001888152602001878152602001866001600160601b03168152602001851515815260200184151581526020018381526020018281526020019e50505050505050505050505050505060405180910390f35b610296611b0e565b6104446004803603604081101561043757600080fd5b5080359060200135611b1d565b604080519115158252519081900360200190f35b61033e611b3e565b6105086004803603604081101561047657600080fd5b81359190810190604081016020820135600160201b81111561049757600080fd5b8201836020820111156104a957600080fd5b803590602001918460208302840111600160201b831117156104ca57600080fd5b919080806020026020016040519081016040528093929190818152602001838360200280828437600092019190915250929550611bfc945050505050565b6040805192835260208301919091528051918290030190f35b61033e6004803603604081101561053757600080fd5b81359190810190604081016020820135600160201b81111561055857600080fd5b82018360208201111561056a57600080fd5b803590602001918460208302840111600160201b8311171561058b57600080fd5b919080806020026020016040519081016040528093929190818152602001838360200280828437600092019190915250929550612053945050505050565b6105d161220b565b604080516001600160a01b039092168252519081900360200190f35b61033e600480360360a081101561060357600080fd5b81359190810190604081016020820135600160201b81111561062457600080fd5b82018360208201111561063657600080fd5b803590602001918460208302840111600160201b8311171561065757600080fd5b9190808060200260200160405190810160405280939291908181526020018383602002808284376000920191909152509295949360208101935035915050600160201b8111156106a657600080fd5b8201836020820111156106b857600080fd5b803590602001918460208302840111600160201b831117156106d957600080fd5b9190808060200260200160405190810160405280939291908181526020018383602002808284376000920191909152509295949360208101935035915050600160201b81111561072857600080fd5b82018360208201111561073a57600080fd5b803590602001918460208302840111600160201b8311171561075b57600080fd5b9190808060200260200160405190810160405280939291908181526020018383602002808284376000920191909152509295949360208101935035915050600160201b8111156107aa57600080fd5b8201836020820111156107bc57600080fd5b803590602001918460018302840111600160201b831117156107dd57600080fd5b50909250905061221a565b61025f6123f2565b610296600480360360a081101561080657600080fd5b81359190810190604081016020820135600160201b81111561082757600080fd5b82018360208201111561083957600080fd5b803590602001918460208302840111600160201b8311171561085a57600080fd5b9190808060200260200160405190810160405280939291908181526020018383602002808284376000920191909152509295949360208101935035915050600160201b8111156108a957600080fd5b8201836020820111156108bb57600080fd5b803590602001918460208302840111600160201b831117156108dc57600080fd5b9190808060200260200160405190810160405280939291908181526020018383602002808284376000920191909152509295949360208101935035915050600160201b81111561092b57600080fd5b82018360208201111561093d57600080fd5b803590602001918460208302840111600160201b8311171561095e57600080fd5b9190808060200260200160405190810160405280939291908181526020018383602002808284376000920191909152509295949360208101935035915050600160201b8111156109ad57600080fd5b8201836020820111156109bf57600080fd5b803590602001918460018302840111600160201b831117156109e057600080fd5b5090925090506123f8565b61025f612464565b6105d160048036036020811015610a0957600080fd5b503561246a565b61025f612485565b610296600480360360c0811015610a2e57600080fd5b81359190810190604081016020820135600160201b811115610a4f57600080fd5b820183602082011115610a6157600080fd5b803590602001918460208302840111600160201b83111715610a8257600080fd5b9190808060200260200160405190810160405280939291908181526020018383602002808284376000920191909152509295949360208101935035915050600160201b811115610ad157600080fd5b820183602082011115610ae357600080fd5b803590602001918460208302840111600160201b83111715610b0457600080fd5b9190808060200260200160405190810160405280939291908181526020018383602002808284376000920191909152509295949360208101935035915050600160201b811115610b5357600080fd5b820183602082011115610b6557600080fd5b803590602001918460208302840111600160201b83111715610b8657600080fd5b9190808060200260200160405190810160405280939291908181526020018383602002808284376000920191909152509295949360208101935035915050600160201b811115610bd557600080fd5b820183602082011115610be757600080fd5b803590602001918460018302840111600160201b83111715610c0857600080fd5b9193509150356001600160a01b031661248b565b61033e60048036036020811015610c3257600080fd5b50356001600160a01b03166124f8565b610c5f60048036036020811015610c5857600080fd5b503561260c565b6040805160208082528351818301528351919283929083019185019080838360005b83811015610c99578181015183820152602001610c81565b50505050905090810190601f168015610cc65780820380516001836020036101000a031916815260200191505b509250505060405180910390f35b6000610d2b3330610d116103e8610d0b610cfb6009546103e86126a790919063ffffffff16565b6001600160601b038f1690612701565b9061275a565b8f6001600160a01b03166127c1909392919063ffffffff16565b6000886001600160601b031611610d89576040805162461bcd60e51b815260206004820152601a60248201527f63616e6e6f742061756374696f6e207a65726f20746f6b656e73000000000000604482015290519081900360640190fd5b6000876001600160601b031611610dd15760405162461bcd60e51b8152600401808060200182810382526023815260200180613bcb6023913960400191505060405180910390fd5b60008611610e105760405162461bcd60e51b8152600401808060200182810382526036815260200180613d316036913960400191505060405180910390fd5b888a1115610e4f5760405162461bcd60e51b8152600401808060200182810382526029815260200180613e4f6029913960400191505060405180910390fd5b428911610e8d5760405162461bcd60e51b8152600401808060200182810382526026815260200180613cba6026913960400191505060405180910390fd5b600854610e9b9060016126a7565b60088190556000908152600260205260409020610eb790612821565b6000610ec23361136b565b9050604051806101c001604052808e6001600160a01b031681526020018d6001600160a01b031681526020018c81526020018b8152602001610f05838b8d61284d565b815260200188815260200160008152602001600160001b81526020016000801b815260200160006001600160601b03168152602001600015158152602001861515815260200160095481526020018781525060016000600854815260200190815260200160002060008201518160000160006101000a8154816001600160a01b0302191690836001600160a01b0316021790555060208201518160010160006101000a8154816001600160a01b0302191690836001600160a01b0316021790555060408201518160020155606082015181600301556080820151816004015560a0820151816005015560c0820151816006015560e0820151816007015561010082015181600801556101208201518160090160006101000a8154816001600160601b0302191690836001600160601b0316021790555061014082015181600901600c6101000a81548160ff02191690831515021790555061016082015181600901600d6101000a81548160ff02191690831515021790555061018082015181600a01556101a082015181600b01559050508360036000600854815260200190815260200160002060006101000a8154816001600160a01b0302191690836001600160a01b031602179055508260046000600854815260200190815260200160002090805190602001906110f9929190613a1e565b508b6001600160a01b03168d6001600160a01b03166008547f728d0fed13687f1840de94f5ae640eae49b43eda26b7ffe97e55e79a0de6e40c8e8e868f8f8f8f8e8e604051808a8152602001898152602001886001600160401b03168152602001876001600160601b03168152602001866001600160601b03168152602001858152602001848152602001836001600160a01b0316815260200180602001828103825283818151815260200191508051906020019080838360005b838110156111cc5781810151838201526020016111b4565b50505050905090810190601f1680156111f95780820380516001836020036101000a031916815260200191505b509a505050505050505050505060405180910390a450506008549b9a5050505050505050505050565b60008181526001602052604081206003015442111561124357506000611262565b60008281526001602052604090206003015461125f9042612886565b90505b919050565b6007546001600160401b031681565b60075460009061129990611294906001600160401b031660016126a7565b6128e3565b6007805467ffffffffffffffff19166001600160401b0392831617908190556112c6916005911684612930565b611317576040805162461bcd60e51b815260206004820152601760248201527f5573657220616c72656164792072656769737465726564000000000000000000604482015290519081900360640190fd5b50600754604080516001600160401b03909216808352905190916001600160a01b038416917f6838f67cb358c332087b73dbe769a6c869a5f87225236c16dda5d0013a77074c9181900360200190a2919050565b6000611378600583612aa8565b1561138f57611388600583612ad2565b9050611262565b61139882611276565b9050816001600160a01b0316816001600160401b03167f969d438b19b6b5fb3c0d3c6f16867e519fcec4233799d6be29d1c00f2045ba2660405160405180910390a3919050565b600081815260016020526040812060030154829080158015906114025750804210155b801561141d5750600082815260016020526040902060080154155b6114585760405162461bcd60e51b8152600401808060200182810382526028815260200180613dd16028913960400191505060405180910390fd5b506000838152600160205260408120600401548190819061147890612b5c565b6000898152600160205260408120600681015460079091015494975092955090935090919080845b60008b81526002602052604081206114b89086612b6b565b90506002600160601b03198114156114d0575061151f565b8094506114dc85612b5c565b6001600160601b0391821696501693506114f8905086846126a7565b955061150f90506001600160601b03871683612701565b6115198685612701565b106114a0575b60008511801561154a575061153d6001600160601b03871683612701565b6115478685612701565b10155b1561160457600061157261156b85610d0b6001600160601b038b1687612701565b8790612886565b90508083106115db5760006115878483612886565b905061159281612bff565b60008e815260016020526040902060090180546bffffffffffffffffffffffff19166001600160601b03929092169190911790556115d08783612886565b9650859b50506115fe565b6115e58684612886565b95506115fb6000886115f689612bff565b61284d565b9a505b5061166d565b866001600160601b031685111561162b576116246000876115f688612bff565b995061166d565b6116376000878961284d565b995061166a611665886001600160601b0316610d0b896001600160601b03168961270190919063ffffffff16565b612bff565b90505b60008b8152600160205260409020600881018b9055600b01548510156116b05760008b8152600160205260409020600901805460ff60601b1916600160601b1790555b6116c58b826001600160601b03168a89612c43565b604080516001600160601b038084168252871660208201528082018c905290518c917f4d160a2a345f2faeb9ac2e65272820b8ca5473b80aabef416bdf7e07ee7f5910919081900360600190a260008b815260036020908152604080832080546001600160a01b03191690556004909152812061174191613aa6565b5050506000978852505060016020525050604084206004810185905560078101859055600681018590556005019390935550919050565b6000828152600160205260409020600301548290801580159061179b5750804210155b80156117b65750600082815260016020526040902060080154155b6117f15760405162461bcd60e51b8152600401808060200182810382526028815260200180613dd16028913960400191505060405180910390fd5b5060008381526001602052604081206004015461180d90612b5c565b6000878152600160205260408120600681015460079091015492955093509091505b8581101561188057600087815260026020526040902061184f9083612b6b565b9150600061185c83612b5c565b925061187591508590506001600160601b0383166126a7565b93505060010161182f565b506002600160601b03198114156118de576040805162461bcd60e51b815260206004820152601960248201527f7265616368656420656e64206f66206f72646572206c69737400000000000000604482015290519081900360640190fd5b6000806118ea83612b5c565b9250925050611914816001600160601b0316866001600160601b031661270190919063ffffffff16565b611927856001600160601b038516612701565b10611979576040805162461bcd60e51b815260206004820152601960248201527f746f6f206d616e79206f72646572732073756d6d656420757000000000000000604482015290519081900360640190fd5b5050600095865260016020526040909520600681019190915560070193909355505050565b6119a6612d8d565b6001600160a01b03166119b761220b565b6001600160a01b031614611a12576040805162461bcd60e51b815260206004820181905260248201527f4f776e61626c653a2063616c6c6572206973206e6f7420746865206f776e6572604482015290519081900360640190fd5b600f821115611a525760405162461bcd60e51b815260040180806020018281038252602d815260200180613c8d602d913960400191505060405180910390fd5b611a5b8161136b565b600a805467ffffffffffffffff19166001600160401b039290921691909117905550600955565b600160208190526000918252604090912080549181015460028201546003830154600484015460058501546006860154600787015460088801546009890154600a8a0154600b909a01546001600160a01b039b8c169b999099169997989697959694959394929391926001600160601b0382169260ff600160601b8404811693600160681b900416918e565b600a546001600160401b031681565b6000828152600260205260408120611b359083612d91565b90505b92915050565b611b46612d8d565b6001600160a01b0316611b5761220b565b6001600160a01b031614611bb2576040805162461bcd60e51b815260206004820181905260248201527f4f776e61626c653a2063616c6c6572206973206e6f7420746865206f776e6572604482015290519081900360640190fd5b600080546040516001600160a01b03909116907f8be0079c531659141344cd1fd0a4f28419497f9722a3daafe3b4186f6b6457e0908390a3600080546001600160a01b0319169055565b60008281526001602052604081206008015481908490611c63576040805162461bcd60e51b815260206004820152601860248201527f41756374696f6e206e6f74207965742066696e69736865640000000000000000604482015290519081900360640190fd5b60005b8451811015611d0057611ca7858281518110611c7e57fe5b602002602001015160026000898152602001908152602001600020612dba90919063ffffffff16565b611cf8576040805162461bcd60e51b815260206004820152601c60248201527f6f72646572206973206e6f206c6f6e67657220636c61696d61626c6500000000604482015290519081900360640190fd5b600101611c66565b50600085815260016020818152604080842081516101c08101835281546001600160a01b03908116825294820154909416928401929092526002820154908301526003810154606083015260048101546080830152600581015460a0830152600681015460c0830152600781015460e08301526008810154610100830181905260098201546001600160601b03811661012085015260ff600160601b820481161515610140860152600160681b909104161515610160840152600a820154610180840152600b909101546101a08301529091908190611dde90612b5c565b92509250506000611e0288600081518110611df557fe5b6020026020010151612b5c565b505060008a815260016020526040812060090154919250600160601b90910460ff16905b8951811015612039576000806000611e438d8581518110611df557fe5b925092509250856001600160401b0316836001600160401b031614611e995760405162461bcd60e51b8152600401808060200182810382526023815260200180613dae6023913960400191505060405180910390fd5b8415611eb957611eb28b6001600160601b0383166126a7565b9a50611fd2565b8861010001518d8581518110611ecb57fe5b60200260200101511415611f5057611f1a611f13886001600160601b0316610d0b8b6001600160601b03168d61012001516001600160601b031661270190919063ffffffff16565b8d906126a7565b9b50611eb2611f498a61012001516001600160601b0316836001600160601b031661288690919063ffffffff16565b8c906126a7565b611f7b8961010001518e8681518110611f6557fe5b6020026020010151612de690919063ffffffff16565b15611fbc57611fb5611f13886001600160601b0316610d0b8b6001600160601b0316856001600160601b031661270190919063ffffffff16565b9b50611fd2565b611fcf8b6001600160601b0383166126a7565b9a505b856001600160401b03168e7f3f2c83616e48a2f8b3c9cc26499e2e5c61643714dac49027d82cf6732f96a91a848460405180836001600160601b03168152602001826001600160601b031681526020019250505060405180910390a3505050600101611e26565b506120468a898985612f6d565b5050505050509250929050565b600082815260016020526040902060020154829042106120a45760405162461bcd60e51b8152600401808060200182810382526032815260200180613bee6032913960400191505060405180910390fd5b60006120af3361136b565b90506000805b84518110156121dc5760006120f88683815181106120cf57fe5b6020026020010151600260008a8152602001908152602001600020612fd290919063ffffffff16565b905080156121d3576000806000612114898681518110611df557fe5b925092509250866001600160401b0316836001600160401b03161461216a5760405162461bcd60e51b8152600401808060200182810382526023815260200180613b826023913960400191505060405180910390fd5b61217d866001600160601b0383166126a7565b604080516001600160601b0380861682528416602082015281519298506001600160401b038a16928d927f7edae327fe79804b2f38bd490d874a0d188d3ae8911b303205abe47400086ac4928290030190a35050505b506001016120b5565b5060008581526001602081905260409091200154612204906001600160a01b03163383613027565b5050505050565b6000546001600160a01b031690565b6000868152600160205260409020600301548690801580159061223d5750804210155b80156122585750600082815260016020526040902060080154155b6122935760405162461bcd60e51b8152600401808060200182810382526028815260200180613dd16028913960400191505060405180910390fd5b50600087815260016020526040902060090154600160681b900460ff166122eb5760405162461bcd60e51b8152600401808060200182810382526028815260200180613b296028913960400191505060405180910390fd5b855160011480156122fd575084516001145b6123385760405162461bcd60e51b8152600401808060200182810382526027815260200180613ce06027913960400191505060405180910390fd5b60006123433361136b565b905061239361237b828960008151811061235957fe5b60200260200101518960008151811061236e57fe5b602002602001015161284d565b60008a81526001602052604090206007015490612de6565b6123ce5760405162461bcd60e51b8152600401808060200182810382526031815260200180613b516031913960400191505060405180910390fd5b6123dd8888888888883361307e565b506123e7886113df565b505050505050505050565b60085481565b600086815260016020526040812060030154879042106124495760405162461bcd60e51b8152600401808060200182810382526022815260200180613ea26022913960400191505060405180910390fd5b6124588888888888883361307e565b98975050505050505050565b6103e881565b6003602052600090815260409020546001600160a01b031681565b60095481565b600087815260016020526040812060030154889042106124dc5760405162461bcd60e51b8152600401808060200182810382526022815260200180613ea26022913960400191505060405180910390fd5b6124eb8989898989898961307e565b9998505050505050505050565b612500612d8d565b6001600160a01b031661251161220b565b6001600160a01b03161461256c576040805162461bcd60e51b815260206004820181905260248201527f4f776e61626c653a2063616c6c6572206973206e6f7420746865206f776e6572604482015290519081900360640190fd5b6001600160a01b0381166125b15760405162461bcd60e51b8152600401808060200182810382526026815260200180613ba56026913960400191505060405180910390fd5b600080546040516001600160a01b03808516939216917f8be0079c531659141344cd1fd0a4f28419497f9722a3daafe3b4186f6b6457e091a3600080546001600160a01b0319166001600160a01b0392909216919091179055565b60046020908152600091825260409182902080548351601f60026000196101006001861615020190931692909204918201849004840281018401909452808452909183018282801561269f5780601f106126745761010080835404028352916020019161269f565b820191906000526020600020905b81548152906001019060200180831161268257829003601f168201915b505050505081565b600082820183811015611b35576040805162461bcd60e51b815260206004820152601b60248201527f536166654d6174683a206164646974696f6e206f766572666c6f770000000000604482015290519081900360640190fd5b60008261271057506000611b38565b8282028284828161271d57fe5b0414611b355760405162461bcd60e51b8152600401808060200182810382526021815260200180613d676021913960400191505060405180910390fd5b60008082116127b0576040805162461bcd60e51b815260206004820152601a60248201527f536166654d6174683a206469766973696f6e206279207a65726f000000000000604482015290519081900360640190fd5b8183816127b957fe5b049392505050565b604080516001600160a01b0380861660248301528416604482015260648082018490528251808303909101815260849091019091526020810180516001600160e01b03166323b872dd60e01b17905261281b9085906134e0565b50505050565b60016000818152602083815260408083206002600160601b031990819055835293830190529190912055565b6001600160c01b031960c084901b166bffffffffffffffffffffffff60601b606084901b16016001600160601b038216015b9392505050565b6000828211156128dd576040805162461bcd60e51b815260206004820152601e60248201527f536166654d6174683a207375627472616374696f6e206f766572666c6f770000604482015290519081900360640190fd5b50900390565b600068010000000000000000821061292c5760405162461bcd60e51b8152600401808060200182810382526026815260200180613d886026913960400191505060405180910390fd5b5090565b60006001600160a01b03821661298d576040805162461bcd60e51b815260206004820152601a60248201527f43616e6e6f7420696e73657274207a65726f2061646472657373000000000000604482015290519081900360640190fd5b6001600160401b0383811614156129eb576040805162461bcd60e51b815260206004820152601860248201527f43616e6e6f7420696e73657274206d61782075696e7436340000000000000000604482015290519081900360640190fd5b6001600160a01b03821660009081526001850160205260409020546001600160401b0316151580612a3f57506001600160401b0360018401166000908152602085905260409020546001600160a01b031615155b15612a4c5750600061287f565b5060019182016001600160401b031660008181526020858152604080832080546001600160a01b0319166001600160a01b039690961695861790559382529484019094529220805467ffffffffffffffff191690921790915590565b6001600160a01b0316600090815260019190910160205260409020546001600160401b0316151590565b6000612ade8383612aa8565b612b2f576040805162461bcd60e51b815260206004820152601b60248201527f4d7573742068617665204164647265737320746f206765742049440000000000604482015290519081900360640190fd5b506001600160a01b0316600090815260019190910160205260409020546001600160401b03166000190190565b60c081901c91606082901c9190565b60006002600160601b0319821415612bb45760405162461bcd60e51b8152600401808060200182810382526022815260200180613c456022913960400191505060405180910390fd5b60008281526020849052604090205480611b355760405162461bcd60e51b815260040180806020018281038252602a815260200180613d07602a913960400191505060405180910390fd5b6000600160601b821061292c5760405162461bcd60e51b8152600401808060200182810382526026815260200180613b036026913960400191505060405180910390fd5b6000848152600160205260408120600a0154612c71906103e890610d0b906001600160601b03861690612701565b600086815260016020526040902060090154909150600160601b900460ff1615612cb957612cb485612cac6001600160601b038516846126a7565b600086612f6d565b612204565b6000858152600160205260408120600801548190612cd690612b5c565b909350915060009050612cf26001600160601b03861688612886565b90506000612d17612d106001600160601b038816610d0b8886612701565b83906126a7565b90506000612d44856001600160601b0316610d0b866001600160601b03168c61270190919063ffffffff16565b9050612d528a83838b612f6d565b612d818a612d6d6001600160601b038a16610d0b8a8e612701565b600a546000906001600160401b0316612f6d565b50505050505050505050565b3390565b60006001821415612da457506000611b38565b5060009081526020919091526040902054151590565b600080612dc78484612fd2565b90508015611b3557600092835260019390930160205250604081205590565b600080600080612df586612b5c565b9250925092506000806000612e0988612b5c565b91945092509050612e266001600160601b03808416908616612701565b612e3c6001600160601b03878116908416612701565b1015612e515760019650505050505050611b38565b612e676001600160601b03838116908616612701565b612e7d6001600160601b03878116908416612701565b1115612e925760009650505050505050611b38565b816001600160601b0316856001600160601b03161015612ebb5760019650505050505050611b38565b816001600160601b0316856001600160601b03161115612ee45760009650505050505050611b38565b826001600160401b0316866001600160401b03161415612f355760405162461bcd60e51b815260040180806020018281038252602d815260200180613df9602d913960400191505060405180910390fd5b826001600160401b0316866001600160401b03161015612f5e5760019650505050505050611b38565b50600098975050505050505050565b6000612f7a600583613591565b90508315612fa557600085815260016020526040902054612fa5906001600160a01b03168286613027565b82156122045760008581526001602081905260409091200154612204906001600160a01b03168285613027565b6000612fde8383612d91565b612fea57506000611b38565b5060008181526001838101602081815260408085205487835281862080548288528388208190558752938352908520559383529390925290915590565b604080516001600160a01b038416602482015260448082018490528251808303909101815260649091019091526020810180516001600160e01b031663a9059cbb60e01b1790526130799084906134e0565b505050565b6000878152600360205260408120546001600160a01b031680156131bf576319a05a7e60e01b6001600160e01b031916816001600160a01b03166319a05a7e858c89896040518563ffffffff1660e01b815260040180856001600160a01b03168152602001848152602001806020018281038252848482818152602001925080828437600081840152601f19601f8201169050808301925050509550505050505060206040518083038186803b15801561313757600080fd5b505afa15801561314b573d6000803e3d6000fd5b505050506040513d602081101561316157600080fd5b50516001600160e01b031916146131bf576040805162461bcd60e51b815260206004820152601f60248201527f75736572206e6f7420616c6c6f77656420746f20706c616365206f7264657200604482015290519081900360640190fd5b5060008881526001602052604081206004015481906131dd90612b5c565b925092505060005b89518110156132a2576132268982815181106131fd57fe5b60200260200101516001600160601b0316836001600160601b031661270190919063ffffffff16565b61325e846001600160601b03168c848151811061323f57fe5b60200260200101516001600160601b031661270190919063ffffffff16565b1061329a5760405162461bcd60e51b8152600401808060200182810382526029815260200180613e266029913960400191505060405180910390fd5b6001016131e5565b50505060006132b08361136b565b60008a8152600160205260408120600501549193505b89518110156134aa5760008a82815181106132dd57fe5b60200260200101516001600160601b03161161332a5760405162461bcd60e51b8152600401808060200182810382526025815260200180613c206025913960400191505060405180910390fd5b8189828151811061333757fe5b60200260200101516001600160601b03161161338c576040805162461bcd60e51b815260206004820152600f60248201526e1bdc99195c881d1bdbc81cdb585b1b608a1b604482015290519081900360640190fd5b6133e96133b3858c848151811061339f57fe5b60200260200101518c858151811061236e57fe5b8983815181106133bf57fe5b6020026020010151600260008f81526020019081526020016000206136179092919063ffffffff16565b156134a25761341d8982815181106133fd57fe5b60200260200101516001600160601b0316846126a790919063ffffffff16565b9250836001600160401b03168b7f9304f2fc7ed6d42c0400e678dbc7283e1e9054889c3afea5f965adff66ef9eac8c848151811061345757fe5b60200260200101518c858151811061346b57fe5b602002602001015160405180836001600160601b03168152602001826001600160601b031681526020019250505060405180910390a35b6001016132c6565b5060008a815260016020819052604090912001546134d3906001600160a01b03163330856127c1565b5050979650505050505050565b6000613535826040518060400160405280602081526020017f5361666545524332303a206c6f772d6c6576656c2063616c6c206661696c6564815250856001600160a01b03166137d89092919063ffffffff16565b8051909150156130795780806020019051602081101561355457600080fd5b50516130795760405162461bcd60e51b815260040180806020018281038252602a815260200180613e78602a913960400191505060405180910390fd5b600061359d83836137ef565b6135ee576040805162461bcd60e51b815260206004820152601b60248201527f4d757374206861766520494420746f2067657420416464726573730000000000604482015290519081900360640190fd5b506001016001600160401b0316600090815260209190915260409020546001600160a01b031690565b60008061362384612b5c565b925050506001600160601b038116613682576040805162461bcd60e51b815260206004820152601f60248201527f496e73657274696e67207a65726f206973206e6f7420737570706f7274656400604482015290519081900360640190fd5b6001841480159061369b57506002600160601b03198414155b6136ec576040805162461bcd60e51b815260206004820152601e60248201527f496e73657274696e6720656c656d656e74206973206e6f742076616c69640000604482015290519081900360640190fd5b6136f68585612d91565b1561370557600091505061287f565b6001831480159061372457506000838152600186016020526040902054155b1561373357600091505061287f565b61373d8385612de6565b61374b57600091505061287f565b5b600083815260208690526040902054613777576000928352600185016020526040909220549161374c565b6000835b6000818152602088905260409020549091506137978187612de6565b61377b576000828152602088815260408083208990558383526001808b0183528184208a905589845281842095909555908990529020559150509392505050565b60606137e78484600085613819565b949350505050565b6001016001600160401b0316600090815260209190915260409020546001600160a01b0316151590565b60608247101561385a5760405162461bcd60e51b8152600401808060200182810382526026815260200180613c676026913960400191505060405180910390fd5b61386385613974565b6138b4576040805162461bcd60e51b815260206004820152601d60248201527f416464726573733a2063616c6c20746f206e6f6e2d636f6e7472616374000000604482015290519081900360640190fd5b600080866001600160a01b031685876040518082805190602001908083835b602083106138f25780518252601f1990920191602091820191016138d3565b6001836020036101000a03801982511681845116808217855250505050505090500191505060006040518083038185875af1925050503d8060008114613954576040519150601f19603f3d011682016040523d82523d6000602084013e613959565b606091505b509150915061396982828661397a565b979650505050505050565b3b151590565b6060831561398957508161287f565b8251156139995782518084602001fd5b8160405162461bcd60e51b81526004018080602001828103825283818151815260200191508051906020019080838360005b838110156139e35781810151838201526020016139cb565b50505050905090810190601f168015613a105780820380516001836020036101000a031916815260200191505b509250505060405180910390fd5b828054600181600116156101000203166002900490600052602060002090601f016020900481019282613a545760008555613a9a565b82601f10613a6d57805160ff1916838001178555613a9a565b82800160010185558215613a9a579182015b82811115613a9a578251825591602001919060010190613a7f565b5061292c929150613aed565b50805460018160011615610100020316600290046000825580601f10613acc5750613aea565b601f016020900490600052602060002090810190613aea9190613aed565b50565b5b8082111561292c5760008155600101613aee56fe53616665436173743a2076616c756520646f65736e27742066697420696e20393620626974736e6f7420616c6c6f77656420746f20736574746c652061756374696f6e2061746f6d6963616c6c7970726563616c63756c61746553656c6c416d6f756e7453756d20697320616c726561647920746f6f20616476616e6365644f6e6c792074686520757365722063616e2063616e63656c20686973206f72646572734f776e61626c653a206e6577206f776e657220697320746865207a65726f2061646472657373746f6b656e732063616e6e6f742062652061756374696f6e656420666f7220667265656e6f206c6f6e67657220696e206f7264657220706c6163656d656e7420616e642063616e63656c6174696f6e2070686173655f6d696e427579416d6f756e7473206d7573742062652067726561746572207468616e2030547279696e6720746f20676574206e657874206f66206c61737420656c656d656e74416464726573733a20696e73756666696369656e742062616c616e636520666f722063616c6c466565206973206e6f7420616c6c6f77656420746f2062652073657420686967686572207468616e20312e352561756374696f6e20656e642064617465206d75737420626520696e20746865206675747572654f6e6c79206f6e65206f726465722063616e20626520706c616365642061746f6d6963616c6c79547279696e6720746f20676574206e657874206f66206e6f6e2d6578697374656e7420656c656d656e746d696e696d756d42696464696e67416d6f756e745065724f72646572206973206e6f7420616c6c6f77656420746f206265207a65726f536166654d6174683a206d756c7469706c69636174696f6e206f766572666c6f7753616665436173743a2076616c756520646f65736e27742066697420696e20363420626974736f6e6c7920616c6c6f77656420746f20636c61696d20666f722073616d65207573657241756374696f6e206e6f7420696e20736f6c7574696f6e207375626d697373696f6e20706861736575736572206973206e6f7420616c6c6f77656420746f20706c6163652073616d65206f726465722074776963656c696d6974207072696365206e6f7420626574746572207468616e206d696d696d616c206f6666657274696d6520706572696f647320617265206e6f7420636f6e6669677572656420636f72726563746c795361666545524332303a204552433230206f7065726174696f6e20646964206e6f7420737563636565646e6f206c6f6e67657220696e206f7264657220706c6163656d656e74207068617365a2646970667358221220366e42b85d7031f124b16c36fe10e7ef453948fb0690ac220a994de68a9c04a264736f6c63430007060033",
  "linkReferences": {},
  "deployedLinkReferences": {}
}